:04018B0002084268BC
:10000300758920758DFD758BFDD28EC29FD29ED2D0
:100013009C2098030200C3C298E599B43904D29294
:10002300C293E599B45304D292D293E599B4362C92
:10003300E50B150B7002150A0509E50970020508A1
:10004300D290C291C39468E508648094C24006D2FA
:1000530090D2918007E599B438D6C298E599B43720
:100063002E050BE50B7002050AE50915097002154B
:1000730008C290D291C3E50B9468E50A648094C2E8
:100083004006D290D2918007E599B438D4C298E55E
:1000930099B43804C290C291E599B431037590FFC5
:1000A300E599B4320375905FE599B433037590AF66
:1000B300E599B4340375906FE599B4350375909F52
:1000C3003080030200147590FF30982AE599B4310B
:1000D300037590FFE599B4320375905FE599B433E6
:1000E300037590AFE599B4340375906FE599B43512
:0C00F3000375909FC2983080D00200146A
:030000000200FFFC
:0C00FF00787FE4F6D8FD75810B02014605
:10010B00020003E493A3F8E493A34003F68001F207
:10011B0008DFF48029E493A3F85407240CC8C333F5
:10012B00C4540F4420C8834004F456800146F6DFC4
:10013B00E4800B010204081020408090018BE47EC8
:10014B00019360BCA3FF543F30E509541FFEE493B9
:10015B00A360010ECF54C025E060A840B8E493A380
:10016B00FAE493A3F8E493A3C8C582C8CAC583CAAB
:10017B00F0A3C8C582C8CAC583CADFE9DEE780BE63
:01018F00006F
:00000001FF
